:020000040800F2
:20000000005000209D2B0008512A0008532A0008552A0008572A0008592A000800000000FD
:200020000000000000000000000000005B2A00085D2A0008000000005F2A0008612A000880
:20004000E52B0008E52B0008E52B0008E52B0008E52B0008E52B0008692A0008E52B00085D
:20006000E52B0008E52B0008E52B0008E52B0008E52B0008E52B0008E52B0008E52B0008C0
:20008000E52B0008E52B0008E52B0008E52B0008E52B0008E52B0008E52B0008E52B0008A0
:2000A000E52B0008E52B0008E52B0008E52B0008E52B0008E52B0008E52B0008E52B000880
:2000C000E52B0008E52B0008E52B0008E52B0008E52B0008E52B0008E52B0008E52B000860
:2000E000E52B0008E52B0008E52B00080000000000000000000000000000000000000000B8
:2001000000000000000000005FF808F110B5054C237833B9044B13B10448AFF3008001234D
:20012000237010BD70000020000000006434000808B5034B1BB103490348AFF3008008BDDA
:20014000000000007400002064340008034613F8012B002AFBD1181A0138704710B50446C4
:200160000E4B18784FF47A73B3FBF0F30C4A1068B0FBF3F000F0A2F868B90F2C01D9012098
:200180000AE0002221464FF0FF3000F055F8034B5C60002000E0012010BD00BF000000206A
:2001A0000800002008B5074A136843F010031360032000F02FF80020FFF7D0FF02F026FCA2
:2001C000002008BD00200240034A1168034B1B780B441360704700BFA40000200000002015
:2001E000014B1868704700BFA400002038B50446FFF7F6FF0546B4F1FF3F02D0044B1B78F5
:200200001C44FFF7EDFF401BA042FAD338BD00BF00000020074AD36823F4E0631B041B0C92
:20022000000200F4E060184340F0BF6040F40030D060704700ED00E030B4174BDB68C3F387
:200240000223C3F10704042C28BF04241D1D062D18D9033B4FF0FF3505FA04F421EA040165
:20026000994005FA03F322EA0303194300280BDB0901C9B200F1604000F5614080F80013FD
:2002800030BC70470023E5E700F00F000901C9B2024B1954F4E700BF00ED00E014ED00E046
:2002A000002807DB00F01F02400901239340024A42F82030704700BF00E100E00138B0F1FC
:2002C000807F0AD2064B5860064AF02182F823100020986007221A6070470120704700BF23
:2002E00010E000E000ED00E0F0B482B000263246A2E0002D5AD0012D00D1CE68FF2B69D874
:200300008446FF2B69D89500DCF800400F27AF4024EA070406FA05F52C43CCF800404C68A0
:2003200014F0805F00F087805F4CA56945F00105A561A46904F001040194019C9508AF1C49
:200340005A4C54F8274002F00307BF004FF00F0C0CFA07FC24EA0C0C554CA04243D004F571
:200360008064A04200F0818004F58064A0427ED004F58064A04234D0042435E04D4FBD421E
:2003800014D00BD94C4FBD4210D007F58037BD420CD0A7F58017BD42B0D107E0A7F58017C0
:2003A000BD4203D007F58037BD42A7D18D687DB1012D08D044610826A0E7CE6808369DE7C6
:2003C000CE680C369AE70461082697E7002695E7042693E700F1040C93E7A2F10805AD0005
:2003E00092E7032400E00024BC4044EA0C0402352E4F47F825404C6814F4803F39D02F4DC7
:200400002C681C432C604C6814F4003F37D02B4D6C681C436C604C6814F4801F35D0274D10
:20042000AC681C43AC604C6814F4001F33D0234DEC682343EB6001320B6833FA02F430D021
:200440000124944023409C42F5D14D68122DB7D094D8022DB1D07FF64CAF032DB6D0112DA1
:200460007FF44CAFCE68043648E70124BCE70224BAE7124D2C6824EA03042C60C3E70F4D46
:200480006C6824EA03046C60C5E70C4DAC6824EA0304AC60C7E7094DEC6824EA0303EB60B6
:2004A000C9E702B0F0BC7047001002400000014000080140000021100000311000040140E4
:2004C00012B909040161704701617047C3680B4201D10161704741617047704708B5054B92
:2004E0005B69034200D108BD024B5861FFF7F5FFF9E700BF0004014003685A6912F4806F66
:2005000011D06FF480625A6100230363202280F83D2080F83E30026C42F00402026480F8F0
:200520003C300120704700207047F8B506460C4617461D4622E0FFF753FE069BC01AA842E7
:2005400000D8DDB900233363202286F83D2086F83E30326C42F02002326486F83C300120D8
:200560001AE033685B6924EA03039BB2B3FA83F35B099F420FD1B5F1FF3FDCD1C4F30743E7
:20058000012BEED033689B6924EA03039BB2B3FA83F35B09EDE70020F8BDF8B504460D46F7
:2005A00016461F463CE01A6842F400721A6023686FF480625A6100232363202284F83D206B
:2005C00084F83E30226C42F00402226484F83C30012033E0FFF704FEC01BB04200D8FEB975
:2005E00000232363202284F83D2084F83E30226C42F02002226484F83C3001201EE0236853
:200600005B6925EA03039BB2003318BF0123A3B123685A6912F4806FC5D1B6F1FF3FD9D1CA
:20062000C5F30743012BEAD023689B6925EA03039BB2003318BF0123E9E70020F8BD00000E
:20064000F0B583B004460F4615461E46C36A082B0DD0012B0BD013F5803F08D0036B122BD6
:200660000AD10268136843F48073136004E02268136843F48073136000962B4600224FF02F
:2006800001112046FFF751FF18BB2369B3F5804F0DD1236807F0FE071F6133462A4610499F
:2006A0002046FFF77AFF0346A0B1012312E0FB11226803F0060343F0F003136133462A46A0
:2006C00008492046FFF769FF38B92368FFB21F61E3E70123184603B0F0BD0123FAE700BFE8
:2006E00002000100080001002DE9F04184B004460D4616461F46C26A01680B6843F48063F3
:200700000B60082A0DD0012A0BD012F5803F08D0036B112B0AD10268136843F480731360B4
:2007200004E02268136843F4807313600097334600224FF001112046FFF7F7FE002849D11D
:200740002369B3F5804F0FD1236845F00105EDB21D613B46324623492046FFF71EFF0346AC
:20076000002838D0012336E04FEAE51808F00608236848F0F0021A613B4632461A492046E1
:20078000FFF70BFF08B1012325E02368EDB21D613B46324613492046FFF7FFFE08B1012344
:2007A00019E000220392236859690391996903910399196841F480711960009733464FF007
:2007C00001112046FFF7B1FE48B9226848F0F1031361BEE70123184604B0BDE8F0810123BC
:2007E000F9E700BF020001000800010070B504460D46164623685B6913F0800F1CD12046FC
:20080000FFF77AFED0B9B5F1FF3FF3D0FFF7E8FC801BA84201D8002DECD10023236320222D
:2008200084F83D2084F83E30226C42F02002226484F83C30012000E0002070BD0120FCE753
:200840002DE9F04184B00446884616461F460B9D0268136843F48073136000950A9B0022BE
:200860004FF00111FFF761FE20B10123184604B0BDE8F081226808F0FE0313612B460A9AA9
:2008800020492046FFF789FE08B10123EEE70023039323685A6903929B690393039B2A4616
:2008A0000A992046FFF7A2FF034658B1236C042B01D00123DAE72268136843F400731360B0
:2008C0000123D3E7012F0ED02368320A1A612A460A992046FFF78AFF034678B1236C042BC2
:2008E00005D00123C2E72268F6B21661BEE72268136843F4007313600123B7E72268F6B2F2
:200900001661B3E70200010070B504460D46164623685B6913F0040F1CD12046FFF7ECFD0E
:20092000D0B9B5F1FF3FF3D0FFF75AFC801BA84201D8002DECD100232363202284F83D202F
:2009400084F83E30226C42F02002226484F83C30012000E0002070BD0120FCE770B505469B
:200960000C4616462B685A6912F0400F29D15A6912F0100F15D1FFF733FC801BA04201D8E3
:20098000002CEFD100232B63202285F83D2085F83E302A6C42F020022A6485F83C30012031
:2009A00070BD6FF010025A6100232B63202285F83D2085F83E302A6C2A6485F83C300120F8
:2009C000EEE70020ECE70000002800F0BE80F8B5044690F83D30002B6BD0242384F83D3077
:2009E0002268136823F00103136000F075FF6268584B9A4262D8584B98428CBF0023012372
:200A0000002B40F0A480554BA3FB00239B0C21684A6822F03F021A434A6025682A6A22F087
:200A20003F0266684B498E424ED8013313432B622568E96921F44F4121F0FF016368454A17
:200A400093424BD801385B00B0FBF3F30133C3F30B03042B38BF04230B43EB6121680B689E
:200A600023F0C003E269206A024313430B6021688B6823F4034323F0FF032269E0680243BF
:200A800013438B602168CB6823F0FF036269A06902431343CB602268136843F001031360FB
:200AA00000202064202384F83D30206384F83E00F8BD80F83C3001F059FE8EE7284B984286
:200AC0008CBF002301239BE74FF4967101FB03F32449A1FB03139B090133A7E7A268BAB9C4
:200AE000461E03EB4307B6FBF7F60136C6F30B06B6FA86F6760936BBC2B9013803EB430337
:200B0000B0FBF3F30133C3F30B0242F40043A3E7461E03EB830707EB8707B6FBF7F6013619
:200B2000C6F30B06B6FA86F67609E4E7013803EB830303EB8303B0FBF3F20132C2F30B02CF
:200B400042F4404388E7012386E7012070470120AEE700BFA08601007F841E0083DE1B4388
:200B6000FF083D00D34D62102DE9F04184B004460E4690461F46FFF733FB94F83D30DBB2A1
:200B8000202B04D00226304604B0BDE8F08105460090192301224F492046FFF7C6FC0028B6
:200BA00040F0918094F83C30012B00F08E80012384F83C3023681A6812F0010F03D11A6851
:200BC00042F001021A602268136823F400631360212384F83D30102384F83E300023236480
:200BE000C4F824806785638D23853B4BE3622B460A9A31462046FFF723FD0646002866D193
:200C00000023039323685A6903929B690393039B12E0236C042B01D00126B4E722681368B8
:200C200043F4007313600126ADE72A460A992046FFF76AFE00282CD1238D002B35D02A4690
:200C40000A992046FFF7D2FD0028E2D1626A236812781A61616A4B1C6362638D013B9BB21F
:200C60006385238D013B9BB223852268506910F0040FDAD0002BD8D04B781361636A0133A0
:200C80006362638D013B9BB26385238D013B2385CBE7236C042B01D0012674E722681368D2
:200CA00043F40073136001266DE72268136843F400731360202384F83D30002384F83E3041
:200CC00084F83C305FE702265DE702265BE7012659E700BF020010000000FFFF2DE9F04193
:200CE00086B004460E4690461F46FFF779FA94F83D30DBB2202B04D00226304606B0BDE8DE
:200D0000F08105460090192301228A492046FFF70CFC002840F0448194F83C30012B00F0C0
:200D20004181012384F83C3023681A6812F0010F03D11A6842F001021A602268136823F4A5
:200D400000631360222384F83D30102384F83E3000232364C4F824806785638D2385764B23
:200D6000E3622B460C9A31462046FFF7BDFC0646002840F01981238D5BB9029323685A69A6
:200D800002929A690292029A1A6842F400721A607DE0012B0FD0022B21D02268136843F426
:200DA000806313600023059323685A6905929B690593059B6BE02268136823F48063136044
:200DC00072B60023039323685A6903929A690392039A1A6842F400721A6062B657E022689D
:200DE000136843F40063136072B60023049323685A6904929A690492049A1A6822F48062F4
:200E00001A6062B643E02A460C992046FFF7A6FD002840F0CB8023681A69636A1A70636A34
:200E200001336362238D013B2385638D013B9BB263852CE000950C9B002240492046FFF775
:200E400074FB002840F0B48072B62268136843F40073136023681A69636A1A70636A0133E7
:200E60006362238D013B2385638D013B9BB2638562B623681A69636A1A70636A0133636275
:200E8000238D013B2385638D013B9BB26385238D002B7CD0032B53D8012BB4D0022BC9D067
:200EA00000950C9B002225492046FFF73EFB002840F080802268136823F48063136072B6DF
:200EC00023681A69636A1A70636A01336362238D013B2385638D013B9BB2638500950C9BB6
:200EE000002216492046FFF720FB002864D12268136843F40073136023681A69636A1A7016
:200F0000636A01336362238D013B2385638D013B9BB2638562B623681A69636A1A70636ACC
:200F200001336362238D013B2385638D013B9BB26385ACE7020010000000FFFF040001001B
:200F40002A460C992046FFF709FD002836D123681A69636A1A70626A531C6362238D013B9A
:200F60002385638D013B9BB263852368596911F0040F8CD01B695370636A01336362238DEE
:200F8000013B2385638D013B9BB263857FE7202384F83D30002384F83E3084F83C30ACE6F3
:200FA0000226AAE60226A8E60126A6E60126A4E60126A2E60126A0E601269EE601269CE6AF
:200FC0002DE9F04182B004460E4617469846FFF707F994F83D30DBB2202B04D002231846A1
:200FE00002B0BDE8F08105460090192301224C492046FFF79AFA002840F08B8094F83C300F
:20100000012B00F08880012384F83C3023681A6812F0010F03D11A6842F001021A602268F2
:20102000136823F400631360212384F83D30402384F83E3000232364089B6362BDF82430B3
:201040006385638D2385374BE36201950A9B009343463A4631462046FFF7F2FB00285CD15D
:20106000238D002B34D02A460A992046FFF7BEFB10BB626A236812781A61616A4B1C63624B
:20108000238D013B9BB22385628D013A92B262852268506910F0040FE2D0002BE0D04B7874
:2010A0001361636A01336362238D013B2385638D013B9BB26385D3E7236C042B01D0012394
:2010C0008DE72268136843F400731360012386E72A460A992046FFF717FC034658B1236C86
:2010E000042B01D001237AE72268136843F400731360012373E721680A6842F400720A60BE
:20110000202284F83D20002284F83E2084F83C2065E7022363E7022361E701235FE700BF8F
:20112000020010000000FFFF2DE9F04385B00446884691461D46FFF753F894F83D30DBB208
:20114000202B04D00223184605B0BDE8F083064600901923012254492046FFF7E6F90028E5
:2011600040F0978094F83C30012B00F09480012384F83C3023681A6812F0010F03D11A687F
:2011800042F001021A602268136823F400631360242384F83D3000232364A3F58033E36244
:2011A000012734E0A02384F83D3023685A69C2F340025969C1F3802194F83D30DBB2A02B9A
:2011C00009D042B939B9FFF70BF8801BA842E9D8002DEAD1E6E7202384F83D3023685A69DB
:2011E00012F0020F31D11A6842F400721A6023686FF480625A610096192301222A492046DD
:20120000FFF793F900284CD101374F4539D22268136843F48073136000962B4600224FF026
:2012200001112046FFF781F9002836D1236808F0FE021A61FEF7D4FF064623685A69C2F382
:2012400040025969C1F38021B6E71A6842F400721A600023039323685A6903929B690393BE
:20126000039B0096192301220F492046FFF75DF90346A0B9202284F83D20002284F83C201A
:2012800061E7202384F83D30002384F83C30012359E7022357E7022355E7012353E7012325
:2012A00051E701234FE700BF02001000014B01221A60704720000E4282B0084B1B68084A61
:2012C000A2FB03235B0A00FB03F0019000BF019B5A1E0192002BF9D102B07047080000207B
:2012E000D34D6210002800F0F58170B582B00446036813F0010F2CD0AB4B5B6803F00C03F8
:20130000042B1DD0A84B5B6803F00C03082B12D06368B3F5803F41D0002B55D103F1804399
:2013200003F504331A6822F480321A601A6822F480221A6037E09C4B5B6813F4803FE7D0C8
:20134000994B1B6813F4003F03D06368002B00F0C381236813F0020F76D0934B5B6813F05A
:201360000C0F5FD0904B5B6803F00C03082B54D02369002B00F08A808C4B01221A60FEF712
:201380002FFF0546884B1B6813F0020F75D1FEF727FF401B0228F5D90320A0E1824A1368CB
:2013A00043F480331360636843B3FEF719FF05467D4B1B6813F4003FCBD1FEF711FF401B2A
:2013C0006428F5D903208AE1B3F5A02F09D0764B1A6822F480321A601A6822F480221A609C
:2013E000E1E703F18043A3F53C331A6842F480221A601A6842F480321A60D4E7FEF7F0FE11
:201400000546694B1B6813F4003FA2D0FEF7E8FE401B6428F5D9032061E1634B5B6813F425
:20142000803FA5D1604B1B6813F0020F04D02369012B01D0012052E15B4A136823F0F80356
:20144000616943EAC1031360236813F0080F32D0A369002B5BD0564B01221A60FEF7C0FE64
:201460000546514B5B6A13F0020F21D1FEF7B8FE401B0228F5D9032031E14B4A136823F064
:20148000F803616943EAC1031360DDE7474B00221A60FEF7A5FE0546434B1B6813F0020F29
:2014A000D2D0FEF79DFE401B0228F5D9032016E10120FFF701FF236813F0040F00F09880CD
:2014C000394BDB6913F0805F33D1374BDA6942F08052DA61DB6903F080530193019B0125FA
:2014E000344B1B6813F4807F25D0E368012B36D0002B4CD103F1804303F504331A6A22F0AE
:2015000001021A621A6A22F004021A622CE0284B00221A60FEF764FE0546234B5B6A13F041
:20152000020FC8D0FEF75CFE401B0228F5D90320D5E00025D4E71F4A136843F48073136027
:20154000FEF74EFE06461B4B1B6813F4807FCCD1FEF746FE801B6428F5D90320BFE0124A26
:20156000136A43F001031362E3687BB3FEF738FE06460D4B1B6A13F0020F38D1FEF730FE35
:20158000801B41F288339842F3D90320A7E0052B12D0054B1A6A22F001021A621A6A22F065
:2015A00004021A62E0E700BF001002400000424280044242007000404C4B1A6A42F0040242
:2015C0001A621A6A42F001021A62CDE7FEF708FE0646464B1B6A13F0020F08D0FEF700FE6A
:2015E000801B41F288339842F3D9032077E0E5B9E369002B72D03D4A526802F00C02082A78
:2016000056D0022B17D03A4B00221A60FEF7E8FD0446364B1B6813F0007F47D0FEF7E0FDDC
:20162000001B0228F5D9032059E0304AD36923F08053D361DCE72E4B00221A60FEF7D0FDD1
:2016400005462A4B1B6813F0007F06D0FEF7C8FD401B0228F5D9032041E0236AB3F5803FAA
:201660001AD022494B6823F47413226A606A024313434B601E4B01221A60FEF7B1FD044635
:201680001A4B1B6813F0007F0ED1FEF7A9FD001B0228F5D9032022E0144A536823F40033CB
:2016A000A1680B435360DCE7002018E0002016E0012B16D00D4B5B6803F48031226A9142FB
:2016C00001D001200BE003F47013626A93420AD0012004E001207047012000E0002002B088
:2016E00070BD0120FBE70020F9E700BF001002406000424210B487B0164C94E80F000DF1DF
:20170000180C0CE90F00238AADF80430124B5B6803F00C02082A1AD1C3F38342624412F8B2
:20172000102C13F4803F05D10C4800FB02F007B010BC7047084B5B68C3F34043634413F855
:20174000143C074800FB02F0B0FBF3F0EFE70448EDE700BF7C3400080010024000093D006A
:2017600000127A00002800F0A38070B50446524B1B6803F007038B420CD24F4A136823F044
:2017800007030B431360136803F007038B4201D0012070BD236813F0020F17D013F0040F7E
:2017A00004D0464A536843F4E0635360236813F0080F04D0414A536843F4605353603F4AF8
:2017C000536823F0F003A068034353600D46236813F0010F31D06368012B20D0022B25D04C
:2017E000364A126812F0020F64D034494A6822F0030213434B60FEF7F3FC06462F4B5B68F4
:2018000003F00C036268B3EB820F16D0FEF7E8FC801B41F288339842F0D90320B9E7274AAE
:20182000126812F4003FE0D10120B2E7234A126812F0007FD9D10120ABE71F4B1B6803F0D9
:201840000703AB420CD91C4A136823F007032B431360136803F00703AB4201D0012098E7F7
:20186000236813F0040F06D0144A536823F4E063E1680B435360236813F0080F07D00F4A5F
:20188000536823F46053216943EAC1035360FFF731FF0A4B5B68C3F30313094AD35CD840F1
:2018A000084B1860084B1868FEF758FC002070E70120704701206CE70020024000100240CA
:2018C000A43400080800002004000020014B1868704700BF0800002008B5FFF7F7FF044B7A
:2018E0005B68C3F30223034AD35CD84008BD00BF00100240B434000808B5FFF7E7FF044B08
:201900005B68C3F3C223034AD35CD84008BD00BF00100240B434000870B582B00446036803
:2019200013F0010F34D03E4BDB6913F0805F48D13B4BDA6942F08052DA61DB6903F08053B6
:201940000193019B0125374B1B6813F4807F3AD0334B1B6A13F4407311D0626802F440720C
:201960009A420CD02E4A136A23F440702E4901260E6000260E60106213F0010F37D1284A54
:20198000136A23F4407361680B431362002D3FD1236813F0020F06D0214A536823F4404302
:2019A000A1680B435360236813F0100F35D01C4A536823F48003E1680B435360002002B094
:2019C00070BD0025BFE7174A136843F480731360FEF706FC0646134B1B6813F4807FB7D1E4
:2019E000FEF7FEFB801B6428F5D90320E7E7FEF7F7FB06460A4B1B6A13F0020FBFD1FEF76D
:201A0000EFFB801B41F288339842F3D90320D6E7D36923F08053D361BAE70020CFE700BF41
:201A200000100240007000404004424230B587B00546384C94E80F000DF1180C0CE90F0040
:201A4000238AADF80430022D50D0102D03D0012D2BD0002054E0304B5A681B6813F0807F62
:201A600050D0C2F3834306A90B4413F8100C12F4803F16D0284B5B68C3F340430B4413F832
:201A8000142C264BB3FBF2F300FB03F0224B5B6813F4800F34D14000214BA3FB0030400887
:201AA0002EE0204B03FB00F0F0E71B4B1B6A40F202321A40B2F5817F26D003F44073B3F54E
:201AC000007F04D0B3F5407F09D0002018E0124A526A12F0020FF5D049F6404010E00E4B63
:201AE0001B6813F4003F12D1002009E0FFF704FF094B5B68C3F3813301335B00B0FBF3F09A
:201B000007B030BD0020FBE74FF40040F8E74FF22440F5E7903400080010024000127A0092
:201B2000ABAAAAAA00093D0030B402689469A5B2D369916988B2854205D0D06980B240EA73
:201B4000014030BC704798B240EA0440F9E70368186A5B6A9BB243EA00407047030903EBEC
:201B600083035A0000F00F001044C0B27047000010B400F5FA64022920D901EB4103C1EBF2
:201B8000C3011F4BA3FB011302EB5303234403EB94031C4AA2FB0424A3EB541303EBD41341
:201BA00002331948A0FB03201A1A00EB52008008C0EBC000181AC0B210BC704701EB410316
:201BC000C1EBC3010E4BA3FB011302EB5303234400F2CF7003EB90030A4AA2FB0020A3EB8F
:201BE000501303EBD01304330748A0FB03201A1A00EB52008008C0EBC000181ADBE700BF56
:201C0000398EE3381F85EB512549922438B50446FEF7E6FA054623685A6812F0200F07D131
:201C2000FEF7DEFA401BB0F57A7FF4D9032004E05A6842F010025A60002038BD38B50446FE
:201C40000268536823F010035360FEF7C9FA054623685B6813F0200F07D1FEF7C1FA401B20
:201C6000B0F57A7FF4D9032000E0002038BD38B505460C46FFF7CAFF10B10123184638BD60
:201C80002B68220C9A612B68A4B2DC612846FFF7D5FF03460028F1D00123EFE738B50546C6
:201CA0000C46FFF7B3FF10B10123184638BD2B68220C1A622B68A4B25C622846FFF7BEFFED
:201CC00003460028F1D00123EFE770B5002857D00446002956D0037C012B55D00E46012383
:201CE000037402234374BAB90D784B78C3EB03139A004FF4616303FB05258B781D44294676
:201D00002046FFF7B4FF0646C8B104236374002323740126304670BD0878FFF71FFF4FF496
:201D2000616505FB00F57078FFF718FFC0EB001083001D44B078FFF711FF0544DFE722688D
:201D4000536823F0050353602046FFF700FFB0F1FF3F01D0854204D8012363740023237497
:201D6000D8E700F5A83101F5C0712046FFF796FF0028F1D004236374002323740126C9E746
:201D80000126C7E70126C5E70226C3E700285DD038B5044600295BD0037C012B5AD00D46C1
:201DA0000123037402234374D2B9CB78C3734B7843738B788373A27B617BE07BFFF7D8FE16
:201DC000207328702046FFF7AFFE234BA3FB0023B3F5484F11D2012363740020207438BDDA
:201DE000C878FFF7BBFEE0736878FFF7B7FE6073A878FFF7B3FEA073DDE7184DA5FB00356B
:201E00002D0C174B03FB150529462046FFF72FFF28B104236374002323740120DFE7204638
:201E2000FFF795FEB0F1FF3FD5D08542D3D900F5A83101F5C0712046FFF730FF0028CAD0E0
:201E400004236374002323740120C8E7012070470120C4E70220C2E7C5B3A29107452EC2A4
:201E600080510100C0B138B504460268536823F008035360FEF7B4F9054623685B6813F0B4
:201E8000080F07D1FEF7ACF9401BB0F57A7FF4D9032000E0002038BD0120704700285AD0B1
:201EA00010B50446437C53B1022363742046FFF7D9FF40B1042363740123184610BD03746B
:201EC00000F084FDF0E72046FFF7A0FE002830D12268536823F007035360A36823B11F4A3A
:201EE000136B23F0010313631C4AD36A23F46073A1680B43D3626268B2F1FF3F1DD021689D
:201F00008B6823F00F0343EA12438B602168CB681B0C1B0492B21343CB602046FFF78EFE8D
:201F20000346A0B90022E27301226273A2736274C3E7042363740123BFE70120FFF776FDA9
:201F400008B1421EDBE7042363740123B5E7042363740123B1E7012318467047006C004049
:201F600038B504460268136923F44053C1680B43136183680269134342691A430168CB685F
:201F800023F4B05323F00C031343CB600268536923F4407381690B4353610268214B9A42F6
:201FA0001FD0FFF799FC00EB800000EB800063689B00B0FBF3F01C4DA5FB003251096422C2
:201FC00002FB110213013233A5FB03235B0903F0F00202EB011203F00F03216813448B6099
:201FE00038BDFFF789FC00EB800000EB800063689B00B0FBF3F00C4DA5FB0032510964229C
:020000040800F2
:2020000002FB110213013233A5FB03235B0903F0F00202EB011203F00F03216813448B6058
:20202000DEE700BF003801401F85EB512DE9F04105460F4616469846069C2B681B6837EAC9
:2020400003030CBF01230023B3421DD1B4F1FF3FF3D02CB1FEF7C4F8A0EB0800A042ECD917
:202060002A68D36823F4D073D3602A68536923F001035361202385F8393085F83A300023BA
:2020800085F83830032000E00020BDE8F081002830D010B5044690F8393033B3242384F851
:2020A00039302268D36823F40053D3602046FFF757FF2268136923F49043136122685369F9
:2020C00023F0220353612268536943F0080353612268D36843F40053D3600020E0632023B4
:2020E00084F8393084F83A3010BD80F8383000F023FDD3E7012070472DE9F04182B01E46E9
:2021000090F83930DBB2202B55D104460D469046002955D0002A55D090F83830012B53D081
:20212000012380F838300023C363212380F83930FEF756F80746A4F82480A4F8268010E02B
:2021400000963B46002280212046FFF76FFF00283CD12B882268C3F3080353602369C3B9ED
:202160000235E38C9BB2B3B1E38C013B9BB2E384A368B3F5805FE3D000963B46002280218A
:202180002046FFF753FF18BB2A7823685A600135E7E70135E5E700963B46002240212046D1
:2021A000FFF744FF0346A8B9202284F83920002284F8382000E00223184602B0BDE8F08104
:2021C0000123F9E70123F7E70223F5E70323F3E70323F1E70323EFE710B59CB00C46027821
:2021E000437881780091074903A800F033FD03A8FDF7ACFF642382B203A92046FFF77CFFF7
:202200001CB010BDBC34000830B59DB004460D46C27843788178009102F5FA62384903A860
:2022200000F018FD03A8FDF791FF642382B203A92846FFF761FF2378013B062B56D8DFE842
:2022400003F02832393F454F04002E4B93E803000390ADF81010090C8DF8121003A8FDF777
:2022600075FF642382B203A92846FFF745FF264B1B68ADF80C301B0C8DF80E3003A8FDF77D
:2022800065FF642382B203A92846FFF735FF1DB030BD1E4B93E803000390ADF81010090CCD
:2022A0008DF81210DAE703AB194A92E8030083E80300D3E7174A03AB07CA03C31A80CDE70C
:2022C000154A03AB07CA03C31A70C7E7134B93E803000390ADF81010090C8DF81210BDE78E
:2022E0000F4A03AB07CA03C31A70B7E70D4A03AB07CA03C323F8022B120C1A70AEE700BF38
:20230000CC340008DC340008A8350008E4340008EC340008F4340008003500080C350008BA
:20232000143500082035000830B583B005460C4664230DF10702002100F0DEF864230DF140
:2023400006020121284600F0D7F864230DF105020221284600F0D0F89DF8053003F00F0283
:202360001B0903EB83035900531823709DF8063003F00F021B0903EB830359005318637070
:202380009DF8073003F00F021B0903EB830359005318A37003B030BD30B583B005460C46A9
:2023A00064230DF10702032100F0A6F864230DF106020421284600F09FF864230DF10502AA
:2023C0000521284600F098F8642301AA0621284600F092F89DF8073003F00F021B0903EBC6
:2023E00083035900531823709DF8063003F00F021B0903EB830359005318A3709DF80530F8
:2024000003F00F021B0903EB83035900531863709DF8043003F00F021B0903EB83035900CB
:202420005318E37003B030BD10B582B004460A46072100F083F880220821204600F07EF883
:2024400080220921204600F079F880220A21204600F074F864230DF107020E21204600F047
:202460004BF89DF8072042F005028DF807200E21204600F063F802B010BD10B582B00446D8
:2024800064230DF107020F2100F036F800228DF807200F21204600F051F802B010BD000044
:2024A000014B1860704700BF8C0000202DE9F04184B015469846BDF828608DF80F100EB9DA
:2024C0004FF47A7644000B4F009601230DF10F0221463868FEF748FB386800962B464246F4
:2024E0002146FEF7FBFB18B9284604B0BDE8F081FF20FAE78C00002000B583B00093134601
:202500000122FFF7D3FF03B05DF804FB30B585B0094C24684FF47A750295019200930123BB
:202520000A4600FA03F12046FEF74AFDB0FA80F0400905B030BD00BF8C00002000B583B063
:2025400002AB03F8012D0122FFF7E0FF03B05DF804FB0000F0B589B006460F466C463F4DE9
:202560000FCD0FC42B6823706846FDF7EFFD642382B269463846FFF7BFFD6420FDF736FEB2
:202580000724002520E0232C07D0272C31D12A463349684600F05EFB04E02A463149684611
:2025A00000F058FB6A463049684600F053FB6846FDF7CCFD642382B269463846FFF79CFDE1
:2025C0000A20FDF713FE0134772C30DC610089B264230A223046FEF7A7FD0028F3D1013568
:2025E000572C0CD0CFDD762C15D0772C19D0682C0BD02A461D49684600F02CFBD2E72A468A
:202600001B49684600F026FBCCE72A461949684600F020FBC6E72A461749684600F01AFB29
:20262000C0E72A461549684600F014FBBAE7144B6C460FCB07C424F8023B1B0C2370684660
:20264000FDF784FD642382B269463846FFF754FD6420FDF7CBFD09B0F0BD00BF2C35000808
:202660004C3500084035000894350008883500085835000864350008703500087C35000822
:202680009C35000870B588B000240494059406940794234B9A6942F010029A619A6902F0D5
:1C26A00010020092009A9A6942F020029A619A6902F020020192019A9A6942F014
:00000001FF
